:1003290020202020202020202020202020202020C4
:10033900002020202020203A20203A202020572069
:1003490020002020323030302D20202D2020202068
:1003590020200020736400207A6400202020202DB2
:1003690020202D20202020573A2020002032302024
:10037900202D20202D20202020202020002020207A
:100389002077656E64752073657420202020002015
:100399002020202020202020202020202020202054
:1003A900006775616E2030303A30302020202020DF
:1003B9002000206B61692030303A30302020202025
:1003C9002020002020536574204775616E7869618B
:1003D9006E202000312E7365742D74696D6520209F
:1003E9002020202000322E7365742D77656E647588
:1003F900202020202000332E7365742D64696E67D8
:10040900736869206B6700342E7365742D67756195
:100419006E7869616E0030313233343536373839A8
:10042900616263646566670080828486888C8A81DC
:10043900838587898D8B55592301011313F8F4F2AC
:05044900F1F1F2F4F8EE
:10126200013100013F14012D01012902012B03016B
:0E1272002804012C04012200012300012400A5
:0C142E00C2AF53E71843E70143E78022F8
:0914880053E77FE4F5E6D2AF2240
:0B14520012142E75E64675E6B9002264
:1012BC00AD07AC06C2AF8CE3EDF5E453E5F843E5BE
:0C12CC0001121452121488D2AFAFE222BB
:10138F00EE54FEFEF5E3E4F5E453E5F843E503120E
:05139F00145202148845
:1012D800AB07AA06C2AF8AE3EBF5E453E5F843E5AA
:0C12E800028DE2121452121488D2AF22C0
:1012F400C2918F807F0A7E00121305D2927F327EC4
:0113040000E8
:0B130500EF1FAC0670011E4C70F622BA
:0E1360007D057F01120D667F8512136E7F0FD3
:0A136E00C292C2901212F4C2922241
:0B13A4007C007D0A1202C0ED2430FF27
:0A13AF00C292D2901212F4C29222F0
:0F1411007F3812136E7F0C12136E7F0602136E5C
:06119E00AB397D0E7F015C
:1011A400EDBF01042480800224C0FF12136EEB758E
:0B11B400F00A84E5F02430FF0213AFC6
:0F0D5700AB2B7D057F02120D66AB287D087F0256
:100D6600EDBF01042480800224C0FF12136EEBC481
:100D7600540FFFEB540FFDEF90041F93FF1213AFB8
:060D8600ED93FF0213AF24
:0A0EA0007A0379607BFFE4FD7F0117
:100EAA00EDBF01042480800224C0FF12136E1202D7
:100EBA0073FF600C1213AF740129F9E43AFA80EE59
:010ECA002205
:100F7200EDBF01042480800224C0FF12136E7C00A6
:100F82007D0AAF03AE021202C01213A4AE02AF0377
:080F92001213A47FDF0213AF6C
:101401007A037929120EA47A0379297F02020EAA9E
:101084007BFF7A03793A120EA67A03794B7F021218
:101094000EAA2001097A03795C7F01120EAA30019D
:0510A40003120EA02262
:1005090043B01FE5227026E5B0541FFFBF1F040545
:10051900248003E4F524E524C39405402DE4F5245F
:10052900752201C200C202F530F548801DE5B054BC
:100539001F641F600405248003E4F524E524C394A3
:10054900024007E4F524F522D20075491430030866
:10055900C203E4F522752301E5227036E523B401CF
:1005690031E5B0541F24F1602324F8601A24FC609B
:100579001124FE6008147017754905801275490425
:10058900800D75490380087549028003754901E4A6
:05059900F5318522236D
:01059E00223A
:040CE700A3E493FFF0
:100CEB00D295E4F550C293EF139294EFC313FFD256
:100CFB00930550E550B408EDE4F550C293ED139213
:100D0B0094EDC313FDD2930550E550B408EDC29595
:050D1B00C293C2942206
:040D8C00A3E493FF4A
:100D9000D295E4FDC293EF139294EFC313FFD29365
:100DA0000DBD08F0E4FDC293EEC313FE309403437F
:100DB0000680D2930DBD08EEC295C293C294AF06D1
:010DC0002210
:100EF600900438E493FF120D908F35120D8C8F3DC0
:100F0600120D8C8F40120D8C8F47120D8C8F46124E
:0A0F16000D8C8F34120D8C8F3922E0
:100AE200E4FD7F8E120CEB900431E493FFAD3512DE
:100AF2000CEBAD3D120CE7AD40120CE7A3E493FF03
:100B0200AD47120CEBA3E493FFAD46120CEBA3E44A
:100B120093FFAD34120CEBA3E493FFAD39120CEB4F
:070B22007D807F8E020CEBC9
:10111500AE07AC05EE25E0FE5306FE4306C0E4FD32
:101125007F8E120CEBAF06AD04120CEB7D807F8E2B
:03113500020CEBBE
:0E142000EF25E0FF4307014307C0120D9022A5
:100A0900C295C293C2947F1E1214208F50E5506480
:100A1900036035755003AD507F1E121115E4FD7F3B
:100A29008E120CEBE4F550E55090043193FFE5503C
:100A390090043F93FD120CEB0550E550C394074019
:090A4900E67D807F8E120CEB2289
:07000300C295C293C29422D2
:100A5200EF640170230412028C120273FF540FC35D
:100A6200940A4008EF54F024101202AE120273C32B
:100A7200950C4023E40202AE1202737005E50C12DB
:100A820002AE120273FF540F7008EF440A24F012F0
:080A920002AE74FF12028C2277
:100F2000D2967F017E00121305C2967F507E00127A
:100F30001305D2967F0A7E00121305A29692087FAF
:080F4000147E00121305D29685
:010F48002286
:02131000AD0727
:10131200E4FBC296ED1392967F057E00121305D26E
:0913220096EDC313FD0BBB08E9B5
:01132B00229F
:10128100E4FBC296EDC313FDD2963096034305806D
:0D1291007F057E001213050BBB08E7AF05BB
:01129E00222D
:100BB100120F207FCC1213107F4412131012130155
:100BC100C2AF120F207FCC1213107FBE121310126E
:100BD1001281AA07121281D2AFEFFEAD02EDFFE43E
:100BE100AC061201B9E4FBFA7980783D12000E12CD
:020BF10001F20F
:010BF30022DF
:10062B00E53E607AB40123C3E52F94FEE52E9400DA
:10063B004010E4F53EF52E752FFE53A0F0120B295A
:10064B008008052FE52F7002052EE53EB40223D35B
:10065B00E52F9401E52E94005010E4F53EF52E7530
:10066B002F0153A0F0120B298008E52F152F7002D4
:10067B00152EE4F525E53EB40107E52590044680EB
:10068B000AE53EB40208E52590044A93F5A07FF4F1
:0E069B007E011213050525E525C3940440D702
:0106A900222E
:100B29007F007E2012138FA201E433FD7E20121272
:100B3900D8AD2D0F1212D8AD290F1212D8AD2B0F27
:100B49001212D8AD280F1212D8AD520F1212D8AD09
:100B59002C7F091212D8AD2F7F101212D8AD337F16
:040B6900500212D84C
:100929007F007E201212BCEF24FF92017F01121278
:10093900BC8F2D7F021212BC8F297F031212BC8F2C
:100949002B7F041212BC8F287F051212BC7551002F
:100959008F527F091212BC8F2C7F101212BC752E78
:0B096900008F2F7F501212BC8F332232
:100ECB00120929E533B4FF22D201753301752D08C0
:100EDB00752902752B0375280475510075522375FE
:0B0EEB002C04E4F52EF52F120B292239
:01000A0022D3
:01149B00222E
:100703007BFF7A037964120EA67A0379757F02124E
:100713000EAAAB347D037F02120D66AB467D067FC6
:1007230002120D66AB477D097F02120D66AB407D59
:10073300027F01120D66AB3D7D057F01120D66AB95
:10074300357D087F01120D66AB397D0E7F010211E5
:01075300A401
:0B145D00200204753F0A22753F0622A2
:100F9A00754201E4F5431207037F8212136975361D
:100FAA00FF75370875388F753AFF753B0F753CE842
:070FBA00752701753F1422A9
:10113800754202E4F5431213677536FF75370B7570
:10114800386D753AFF753B0F753CE8752702753F9A
:0211580014225F
:1010A900754203E4F5437F881213697536FF753776
:1010B900087538DC753AFF753B0F753CE8752703F1
:0410C900753F142239
:100FC100754203E4F54312119E7F8E121369753643
:100FD100FF75370A75389A753AFF753B0F753CE80E
:070FE100752704753F14227F
:1010CD00754205E4F5437FC31213697536FF753715
:1010DD00077538A5753AFF753B0F753CE875270503
:0410ED00753F142215
:100DC100754206E4F543AB467D067F02120D667F50
:100DD100C61213697536FF7537077538F3753AFF13
:0D0DE100753B0F753CE8752706753F142221
:100DEE00754207E4F543AB477D097F02120D667F1E
:100DFE00C91213697536FF753708753841753AFF94
:0D0E0E00753B0F753CE8752707753F1422F2
:10088F0012145DBF011F0540E540540FC3940A4089
:10089F0008E54054F02410F540E540C39424401C73
:1008AF00E4F5408017E5407003754024E540540F90
:1008BF007008E540440A24F0F5401540AB407D0236
:0D08CF007F01120D667F82121369020AE29A
:100B6D0012145DBF011F053DE53D540FC3940A40AE
:100B7D0008E53D54F02410F53DE53DC39460401C5F
:100B8D00E4F53D8017E53D7003753D5AE53D540F85
:100B9D007008E53D440A24F0F53D153DAB3D1213BB
:040BAD0060020AE2F6
:1008DC0012145DBF011F0535E535540FC3940A4052
:1008EC0008E53554F02410F535E535C39460401C0B
:1008FC00E4F5358017E535700375355AE535540F39
:10090C007008E535440A24F0F5351535AB357D080E
:0D091C007F01120D667F88121369020AE246
:100A9A0012145DBF011F0539E539540FC3940A408A
:100AAA0008E53954F02410F539E539C39408401D96
:100ABA007539018018E539B40103753908E53954E7
:100ACA000F7008E539440A24F0F539153912119ED8
:080ADA007F8E121369020AE28B
:1007A50012145DBF011F0534E534540FC3940A408C
:1007B50008E53454F02410F534E534C3949A401D0B
:1007C5007534018018E534B4010375349AE5345461
:1007D5000F7008E534440A24F0F5341534AB347D44
:0E07E500037F02120D667FC3121369020AE23F
:1007F30012145DBF011F0546E546540FC3940A401A
:1008030008E54654F02410F546E546C39413401D0D
:100813007546018018E546B40103754613E5465451
:100823000F7008E546440A24F0F5461546AB467DAD
:0E083300067F02120D667FC6121369020AE2EA
:1008410012145DBF011F0547E547540FC3940A40C9
:1008510008E54754F02410F547E547C39432401D9D
:10086100E4F5478018E547B40103754732E547547D
:100871000F7008E547440A24F0F5471547AB477D5B
:0E088100097F02120D667FC9121369020AE296
:1006AA00E52714B4070050449006C075F003A4C5AA
:1006BA008325F0C583730206D50206DA0206DF0235
:1006CA0006E40206E90206EE0206F3120F9A801CFD
:1006DA0012113880171210A98012120FC1800D1240
:1006EA0010CD8008120DC18003120DEE0527E527F3
:0906FA00D3940740037527012287
:10129F007BFF7A037986120EA67A0379987F021262
:0D12AF000EAAAB52AA517D077F02020F72FA
:1010F100754201E4F54312129F7FC71213697536D9
:10110100FF753709753874753AFF753B10753C0FDB
:04111100752701221B
:1009740012145DBF01190552E55270020551D3945A
:1009840063E551940040217551007552638019E567
:1009940052155270021551C3E5529405E551940065
:1009A4005006755100755205AB52AA517D077F025E
:0B09B400120F727FC7121369020B299B
:0C143A00E5421460030470031210F1225C
:1013B9007BFF7A0379AA120EA67A0379BB7F020210
:0213C9000EAA6A
:100D2000754201E4F5431213B9AB2D7D057F011225
:100D30000D66AB297D087F01120D66120D577536C1
:100D4000FF753713753878753AFF753B10753C366B
:070D50001213677527012251
:1011BF00754202E4F5437F881213697536FF753760
:1011CF0012753822753AFF753B10753C367527023C
:0111DF0022ED
:1011E000754203E4F5437FC51213697536FF753701
:1011F0001375382C753AFF753B10753C367527030F
:0112000022CB
:10120100754204E4F5437FC81213697536FF7537DB
:1012110013753846753AFF753B10753C36752704D2
:0112210022AA
:1013780012145D7B007A00792D750C24120A52AB89
:071388002D121360020B2976
:1012220012145D7B007A007929750C60120A52ABA8
:10123200297D087F01120D667F88121369020B292E
:10132C0012145D7B007A00792B750C24120A521270
:0A133C000D577FC5121369020B293B
:1013460012145D7B007A007928750C60120A52121D
:0A1356000D607FC8121369020B2915
:100F49000542E542D394044003754201E54224FE7B
:100F5900600D14600D14600D2403700C020D200245
:090F690011BF0211E01212012275
:1013CB007BFF7A0379CC120EA67A0379297F02026E
:0213DB000EAA58
:100E1B00754201E4F5431213CB7536FF75370E752A
:100E2B003848753AFF753B10753C5DAB2C7D077FE1
:0D0E3B00021211A47F0C12136E7527012204
:100E480012145DBF010E052CE52CD39409401175D1
:100E58002C09800CE52CC394015003752C01152C2A
:0C0E6800AB2C7D077F021211A4020B29A5
:0C144600E542146003047003120E1B2228
:100E7400E4F541F542F543121401121411121084E1
:100E8400753AFF753B00753C0A7536FF7537147566
:0C0E9400389B754BFF754C14754D9B226C
:1013DD007BFF7A0379DD120EA67A0379EE7F020286
:0213ED000EAA46
:1013EF007BFF7A0379FF120EA67A0479107F02022F
:0213FF000EAA34
:100FE800754101E4F5421213DD7F801213697536ED
:100FF800FF75370C7538AD753AFF753B0E753C7447
:07100800752701753F14225A
:10100F00754102E4F5421213DD7FC0121369753684
:10101F00FF75370C7538AD753AFF753B0E753C741F
:07102F00752702753F142232
:10103600754103E4F5421213EF7F8012136975368A
:10104600FF75370C7538AD753AFF753B0E753C74F8
:07105600752703753F14220A
:10105D00754104E4F5421213EF7FC0121369753622
:10106D00FF75370C7538AD753AFF753B0E753C74D1
:07107D00752704753F1422E2
:100CAD00BF010E0527E527D3940440117527018058
:100CBD000C1527E527C394015003752704E5272458
:100CCD00FE600D14600D14600D2403700C020FE80E
:0A0CDD0002100F02103612105D2203
:10115A00E541146010146010146010146010240427
:10116A00700F020FE80206AA02143A020F4912147B
:02117A0046220B
:07149100AA3BA93C02032362
:0B1468008538828537837F020203274E
:0B1473008538828537837F0102032744
:0314980002115AE4
:1009BF00E54924FE601914601114600924037012B4
:1009CF00121498800D12149180081214688003126B
:1009DF001473E5417023E5496405701DB2012001D0
:1009EF000C7BFF7A03795CFD7F01120EAA300103A5
:0A09FF00120EA0120B29E4F53122BC
:10075400E4FFFEFDC2B6D2B7C2B5D2B6C2B6A20895
:1007640092B7D2B6C2B6A20992B7D2B6C2B6D2B7BF
:10077400D2B6C2B6EE25E0FE30B7010E0FBF08F0C8
:10078400E4FFEDC313FD30B7032480FDD2B6C2B637
:100794000FBF08EED2B5D2B6EEB50502FF227F0038
:0107A4002232
:10124200E4FDFCC3ED9FEC9E5015E4FBFA0BBB00E2
:0F125200010AEB64784A70F50DBD00010C80E4D1
:01126100226A
:100BF400AB347D047F02120D66AB467D077F021283
:100C04000D66AB477D0A7F02120D66AB407D047F03
:100C140001120D66AB3D7D077F01120D66AB357D7C
:0F0C24000A7F01120D66AB397D0E7F010211A40C
:0A147E00D2AF758901D2A9D28C22E9
:10117C0020011EE541701AE5317016E549B40203F1
:10118C00753E01E549B40303753E02200003E4F506
:02119C003E22F1
:100C330030013AE5357010E53DB5290BE540B52D9A
:100C430006753E02753101E5357010E53DB5280B9B
:100C5300E540B52B06753E01753102E531700EE5B1
:0E0C63004AD3952C5004753E0122753E0222A4
:10044E00120ECB12141112108412000312147E120B
:10045E000E74120A09120BB18E4E8F4F7F8A7E02D6
:10046E00121242120509E549C3940A50031209BF3C
:10047E00E54AD3952C5004D2A78002C2A712117C54
:10048E00300772C207120C33120BB18E4E8F4FC350
:10049E00E54F9463E54E94004006754E00754F632C
:1004AE00C3E54F9552E54E95514004B2978002D266
:1004BE0097D208C209120754AC07E41201BEE4FB3E
:1004CE00FA7910784112000EE4FBFA797F78431224
:1004DE0001171201F28F4AE541701A120EF6120B35
:1004EE00F4AB4FAA4E7D0D7F02120F72AB4AE4FDA4
:0B04FE007F021211A412062B020471F1
:03000B00020C7173
:040C7100C0E0C0D04F
:100C7500758C3C758AB00526E526C3940440057538
:100C85002600D20730001C0548E548C3953F4013B0
:100C9500754800D2030530E530D39403400575301F
:030CA5000AD2026E
:050CA800D0D0D0E032C5
:10000E00EC4D6011E8497017ED33EC3304600DE4EC
:10001E00FCFFFEFD22E933E8330470F802025E12A3
:10002E00022958046009E4CC2481500628500902A4
:10003E000268284003020265C0E0EB4A7044B980B2
:10004E0006D0E0FB020254EF4E701CBD8008EBFFA1
:10005E00EAFEE9FD80EBE98DF0A4FEE5F00200F783
:10006E00E9CDF9EAFEEBFFEF89F0A4FCE5F0CE89CD
:10007E00F0A42EFFE435F0CD89F0A42DFEE435F08A
:10008E008067EF4E7005BD80D780C3EF8BF0A4ACB8
:10009E00F0EE8BF0A42CFCE435F0F8EF8AF0A42CF3
:1000AE00E5F038FCE433CB8DF0A42CFCE5F03BF806
:1000BE00EE8AF0A42CFCE5F038F8E433CF89F0A4F6
:1000CE002CFCE5F038CF3400CE89F0A42FFFE5F0FC
:1000DE003EFEE433C98DF0A42EFEE5F039CD8AF054
:1000EE00A42FFFE5F03EFEE43DFD33D0E0FB5007CC
:1000FE000BBB000F020268EC2CFCEF33FFEE33FE5D
:06010E00ED33FD0202408A
:10011400020268EC5D046005E85904700302025EA3
:10012400120229580460F6EC4860F2EC7004FDFEFB
:10013400FF22C860DB2481C85009C39860025006BE
:100144000202659850CAF582E9294B4A7005AB82D0
:1001540002025475F0007C1A7880C3EF9BEE9AED8E
:1001640099400DC3EF9BFFEE9AFEED99FDE842F036
:10017400DC23ACF0D0E0FFD0E0FED0E0FDAB822089
:10018400E7101BEB60BAEC2CFCEF33FFEE33FEED13
:1001940033FD020240E803F830E705C0F075F000D3
:1001A400EF2FFFEE33FEED33FD40B830E7C280AAF7
:1001B40075F020800E75F010800575F0087D007EC6
:1001C400007F003392D530D503120315EC33401071
:1001D400EF33FFEE33FEED33FDEC33FCD5F0ED22CF
:0E01E400E5F0247EA2D513CC92E7CDCEFF220B
:1001F200EDD2E7CD33EC3392D524814006E4FFFE05
:10020200FDFC22FCE4CFCECDCC24E0501174FF8063
:10021200EDC3CC13CCCD13CDCE13CECF13CF047000
:07022200F030D5DE020315E8
:10022900E9D2E7C933E833F892D5EDD2E7CD33EC1B
:0702390033FC5002B2D52294
:10024000EC30E7100FBF000C0EBE00080DBD00041F
:100250000BEB6014A2D5EB13FCED92E7FD2274FFCB
:10026000FCFDFEFF22E480F8A2D574FF13FC7D8024
:03027000E480EF38
:0300000002059F57
:0C059F00787FE4F6D8FD7581520205E675
:10027300BB010689828A83E0225002E722BBFE0289
:09028300E32289828A83E49322BC
:10028C00BB010989828A83F8E028F022500327F702
:10029C0022BBFE05F8E328F3228A838982F8E493D3
:0202AC00282206
:1002AE00BB010689828A83F0225002F722BBFE012F
:0202BE00F32229
:1002C000BC000BBE0029EF8DF084FFADF022E4CC22
:1002D000F875F008EF2FFFEE33FEEC33FCEE9DECEB
:1002E000984005FCEE9DFE0FD5F0E9E4CEFD22ED31
:1002F000F8F5F0EE8420D21CFEADF075F008EF2F7B
:10030000FFED33FD4007985006D5F0F222C398FD6B
:050310000FD5F0EA2208
:0E031500C3E49FFFE49EFEE49DFDE49CFC22F9
:060323008A838982E47365
:1005AB0002044EE493A3F8E493A34003F68001F214
:1005BB0008DFF48029E493A3F85407240CC8C33351
:1005CB00C4540F4420C8834004F456800146F6DF20
:1005DB00E4800B0102040810204080901262E47E3C
:1005EB00019360BCA3FF543F30E509541FFEE49315
:1005FB00A360010ECF54C025E060A840B8E493A3DC
:10060B00FAE493A3F8E493A3C8C582C8CAC583CA06
:10061B00F0A3C8C582C8CAC583CADFE9DEE780BEBE
:01128000006D
:00000001FF
